{
  "_format": "hh-sol-artifact-1",
  "contractName": "BuyMeACoffee",
  "sourceName": "contracts/BuyMeACoffee.sol",
  "abi": [
    {
      "inputs": [],
      "stateMutability": "nonpayable",
      "type": "constructor"
    },
    {
      "anonymous": false,
      "inputs": [
        {
          "indexed": true,
          "internalType": "address",
          "name": "from",
          "type": "address"
        },
        {
          "indexed": false,
          "internalType": "uint256",
          "name": "timestamp",
          "type": "uint256"
        },
        {
          "indexed": false,
          "internalType": "string",
          "name": "name",
          "type": "string"
        },
        {
          "indexed": false,
          "internalType": "string",
          "name": "message",
          "type": "string"
        }
      ],
      "name": "NewMemo",
      "type": "event"
    },
    {
      "anonymous": false,
      "inputs": [
        {
          "indexed": false,
          "internalType": "address",
          "name": "newwithdrawer",
          "type": "address"
        }
      ],
      "name": "NewWithdrawer",
      "type": "event"
    },
    {
      "inputs": [
        {
          "internalType": "string",
          "name": "_name",
          "type": "string"
        },
        {
          "internalType": "string",
          "name": "_message",
          "type": "string"
        }
      ],
      "name": "buyCoffee",
      "outputs": [],
      "stateMutability": "payable",
      "type": "function"
    },
    {
      "inputs": [
        {
          "internalType": "address",
          "name": "_newwithdrawer",
          "type": "address"
        }
      ],
      "name": "changeWithdrawer",
      "outputs": [],
      "stateMutability": "nonpayable",
      "type": "function"
    },
    {
      "inputs": [],
      "name": "getCurrentWithdrawer",
      "outputs": [
        {
          "internalType": "address",
          "name": "",
          "type": "address"
        }
      ],
      "stateMutability": "view",
      "type": "function"
    },
    {
      "inputs": [],
      "name": "getMemos",
      "outputs": [
        {
          "components": [
            {
              "internalType": "address",
              "name": "from",
              "type": "address"
            },
            {
              "internalType": "uint256",
              "name": "timestamp",
              "type": "uint256"
            },
            {
              "internalType": "string",
              "name": "name",
              "type": "string"
            },
            {
              "internalType": "string",
              "name": "message",
              "type": "string"
            }
          ],
          "internalType": "struct BuyMeACoffee.Memo[]",
          "name": "",
          "type": "tuple[]"
        }
      ],
      "stateMutability": "view",
      "type": "function"
    },
    {
      "inputs": [],
      "name": "withdrawTips",
      "outputs": [],
      "stateMutability": "nonpayable",
      "type": "function"
    }
  ],
  "bytecode": "0x608060405234801561001057600080fd5b50336000806101000a81548173ffffffffffffffffffffffffffffffffffffffff021916908373ffffffffffffffffffffffffffffffffffffffff16021790555060008054906101000a900473ffffffffffffffffffffffffffffffffffffffff16600160006101000a81548173ffffffffffffffffffffffffffffffffffffffff021916908373ffffffffffffffffffffffffffffffffffffffff160217905550610e57806100c16000396000f3fe60806040526004361061004a5760003560e01c8063204206e11461004f5780633aaa74b21461006b578063865c517214610082578063a868e65b146100ad578063f7a1e278146100d6575b600080fd5b61006960048036038101906100649190610717565b610101565b005b34801561007757600080fd5b5061008061027b565b005b34801561008e57600080fd5b506100976102dd565b6040516100a49190610994565b60405180910390f35b3480156100b957600080fd5b506100d460048036038101906100cf91906109e2565b6104c0565b005b3480156100e257600080fd5b506100eb610593565b6040516100f89190610a1e565b60405180910390f35b60003411610144576040517f08c379a000000000000000000000000000000000000000000000000000000000815260040161013b90610a96565b60405180910390fd5b600260405180608001604052803373ffffffffffffffffffffffffffffffffffffffff16815260200142815260200184815260200183815250908060018154018082558091505060019003906000526020600020906004020160009091909190915060008201518160000160006101000a81548173ffffffffffffffffffffffffffffffffffffffff021916908373ffffffffffffffffffffffffffffffffffffffff16021790555060208201518160010155604082015181600201908161020c9190610cc2565b5060608201518160030190816102229190610cc2565b5050503373ffffffffffffffffffffffffffffffffffffffff167fc56140e05f516509ae28110e0f72e17558a7561630dad2647c3ae87d986e365c42848460405161026f93929190610ddc565b60405180910390a25050565b600160009054906101000a900473ffffffffffffffffffffffffffffffffffffffff1673ffffffffffffffffffffffffffffffffffffffff166108fc479081150290604051600060405180830381858888f193505050506102db57600080fd5b565b60606002805480602002602001604051908101604052809291908181526020016000905b828210156104b757838290600052602060002090600402016040518060800160405290816000820160009054906101000a900473ffffffffffffffffffffffffffffffffffffffff1673ffffffffffffffffffffffffffffffffffffffff1673ffffffffffffffffffffffffffffffffffffffff1681526020016001820154815260200160028201805461039490610ae5565b80601f01602080910402602001604051908101604052809291908181526020018280546103c090610ae5565b801561040d5780601f106103e25761010080835404028352916020019161040d565b820191906000526020600020905b8154815290600101906020018083116103f057829003601f168201915b5050505050815260200160038201805461042690610ae5565b80601f016020809104026020016040519081016040528092919081815260200182805461045290610ae5565b801561049f5780601f106104745761010080835404028352916020019161049f565b820191906000526020600020905b81548152906001019060200180831161048257829003601f168201915b50505050508152505081526020019060010190610301565b50505050905090565b60008054906101000a900473ffffffffffffffffffffffffffffffffffffffff1673ffffffffffffffffffffffffffffffffffffffff163373ffffffffffffffffffffffffffffffffffffffff161461051857600080fd5b80600160006101000a81548173ffffffffffffffffffffffffffffffffffffffff021916908373ffffffffffffffffffffffffffffffffffffffff1602179055507f0a2a00c9945cf1c7decbfb41fa14bfd3a64c729bb84405d04a985d5f21284075816040516105889190610a1e565b60405180910390a150565b6000600160009054906101000a900473ffffffffffffffffffffffffffffffffffffffff16905090565b6000604051905090565b600080fd5b600080fd5b600080fd5b600080fd5b6000601f19601f8301169050919050565b7f4e487b7100000000000000000000000000000000000000000000000000000000600052604160045260246000fd5b610624826105db565b810181811067ffffffffffffffff82111715610643576106426105ec565b5b80604052505050565b60006106566105bd565b9050610662828261061b565b919050565b600067ffffffffffffffff821115610682576106816105ec565b5b61068b826105db565b9050602081019050919050565b82818337600083830152505050565b60006106ba6106b584610667565b61064c565b9050828152602081018484840111156106d6576106d56105d6565b5b6106e1848285610698565b509392505050565b600082601f8301126106fe576106fd6105d1565b5b813561070e8482602086016106a7565b91505092915050565b6000806040838503121561072e5761072d6105c7565b5b600083013567ffffffffffffffff81111561074c5761074b6105cc565b5b610758858286016106e9565b925050602083013567ffffffffffffffff811115610779576107786105cc565b5b610785858286016106e9565b9150509250929050565b600081519050919050565b600082825260208201905092915050565b6000819050602082019050919050565b600073ffffffffffffffffffffffffffffffffffffffff82169050919050565b60006107e6826107bb565b9050919050565b6107f6816107db565b82525050565b6000819050919050565b61080f816107fc565b82525050565b600081519050919050565b600082825260208201905092915050565b60005b8381101561084f578082015181840152602081019050610834565b60008484015250505050565b600061086682610815565b6108708185610820565b9350610880818560208601610831565b610889816105db565b840191505092915050565b60006080830160008301516108ac60008601826107ed565b5060208301516108bf6020860182610806565b50604083015184820360408601526108d7828261085b565b915050606083015184820360608601526108f1828261085b565b9150508091505092915050565b600061090a8383610894565b905092915050565b6000602082019050919050565b600061092a8261078f565b610934818561079a565b935083602082028501610946856107ab565b8060005b85811015610982578484038952815161096385826108fe565b945061096e83610912565b925060208a0199505060018101905061094a565b50829750879550505050505092915050565b600060208201905081810360008301526109ae818461091f565b905092915050565b6109bf816107db565b81146109ca57600080fd5b50565b6000813590506109dc816109b6565b92915050565b6000602082840312156109f8576109f76105c7565b5b6000610a06848285016109cd565b91505092915050565b610a18816107db565b82525050565b6000602082019050610a336000830184610a0f565b92915050565b600082825260208201905092915050565b7f63616e27742062757920636f6666656520666f72206672656521000000000000600082015250565b6000610a80601a83610a39565b9150610a8b82610a4a565b602082019050919050565b60006020820190508181036000830152610aaf81610a73565b9050919050565b7f4e487b7100000000000000000000000000000000000000000000000000000000600052602260045260246000fd5b60006002820490506001821680610afd57607f821691505b602082108103610b1057610b0f610ab6565b5b50919050565b60008190508160005260206000209050919050565b60006020601f8301049050919050565b600082821b905092915050565b600060088302610b787fffffffffffffffffffffffffffffffffffffffffffffffffffffffffffffffff82610b3b565b610b828683610b3b565b95508019841693508086168417925050509392505050565b6000819050919050565b6000610bbf610bba610bb5846107fc565b610b9a565b6107fc565b9050919050565b6000819050919050565b610bd983610ba4565b610bed610be582610bc6565b848454610b48565b825550505050565b600090565b610c02610bf5565b610c0d818484610bd0565b505050565b5b81811015610c3157610c26600082610bfa565b600181019050610c13565b5050565b601f821115610c7657610c4781610b16565b610c5084610b2b565b81016020851015610c5f578190505b610c73610c6b85610b2b565b830182610c12565b50505b505050565b600082821c905092915050565b6000610c9960001984600802610c7b565b1980831691505092915050565b6000610cb28383610c88565b9150826002028217905092915050565b610ccb82610815565b67ffffffffffffffff811115610ce457610ce36105ec565b5b610cee8254610ae5565b610cf9828285610c35565b600060209050601f831160018114610d2c5760008415610d1a578287015190505b610d248582610ca6565b865550610d8c565b601f198416610d3a86610b16565b60005b82811015610d6257848901518255600182019150602085019450602081019050610d3d565b86831015610d7f5784890151610d7b601f891682610c88565b8355505b6001600288020188555050505b505050505050565b610d9d816107fc565b82525050565b6000610dae82610815565b610db88185610a39565b9350610dc8818560208601610831565b610dd1816105db565b840191505092915050565b6000606082019050610df16000830186610d94565b8181036020830152610e038185610da3565b90508181036040830152610e178184610da3565b905094935050505056fea264697066735822122023d703bb8563cc4dd044aef5e91ff25b8a187ba6507e55c7628c060134ed27c564736f6c63430008110033",
  "linkReferences": {},
  "deployedLinkReferences": {}
}